{
  "contractName": "Crowdfunding",
  "abi": [
    {
      "inputs": [
        {
          "internalType": "uint256",
          "name": "minimum",
          "type": "uint256"
        },
        {
          "internalType": "string",
          "name": "name",
          "type": "string"
        },
        {
          "internalType": "address",
          "name": "_owner",
          "type": "address"
        },
        {
          "internalType": "string",
          "name": "_description",
          "type": "string"
        }
      ],
      "payable": false,
      "stateMutability": "nonpayable",
      "type": "constructor"
    },
    {
      "constant": true,
      "inputs": [],
      "name": "campaignName",
      "outputs": [
        {
          "internalType": "string",
          "name": "",
          "type": "string"
        }
      ],
      "payable": false,
      "stateMutability": "view",
      "type": "function"
    },
    {
      "constant": true,
      "inputs": [
        {
          "internalType": "address",
          "name": "",
          "type": "address"
        }
      ],
      "name": "contributions",
      "outputs": [
        {
          "internalType": "uint256",
          "name": "",
          "type": "uint256"
        }
      ],
      "payable": false,
      "stateMutability": "view",
      "type": "function"
    },
    {
      "constant": true,
      "inputs": [
        {
          "internalType": "uint256",
          "name": "",
          "type": "uint256"
        }
      ],
      "name": "contributorAddresses",
      "outputs": [
        {
          "internalType": "address",
          "name": "",
          "type": "address"
        }
      ],
      "payable": false,
      "stateMutability": "view",
      "type": "function"
    },
    {
      "constant": true,
      "inputs": [
        {
          "internalType": "address",
          "name": "",
          "type": "address"
        }
      ],
      "name": "contributors",
      "outputs": [
        {
          "internalType": "bool",
          "name": "",
          "type": "bool"
        }
      ],
      "payable": false,
      "stateMutability": "view",
      "type": "function"
    },
    {
      "constant": true,
      "inputs": [],
      "name": "contributorsCount",
      "outputs": [
        {
          "internalType": "uint256",
          "name": "",
          "type": "uint256"
        }
      ],
      "payable": false,
      "stateMutability": "view",
      "type": "function"
    },
    {
      "constant": true,
      "inputs": [],
      "name": "description",
      "outputs": [
        {
          "internalType": "string",
          "name": "",
          "type": "string"
        }
      ],
      "payable": false,
      "stateMutability": "view",
      "type": "function"
    },
    {
      "constant": true,
      "inputs": [],
      "name": "minimumContribution",
      "outputs": [
        {
          "internalType": "uint256",
          "name": "",
          "type": "uint256"
        }
      ],
      "payable": false,
      "stateMutability": "view",
      "type": "function"
    },
    {
      "constant": true,
      "inputs": [],
      "name": "owner",
      "outputs": [
        {
          "internalType": "address",
          "name": "",
          "type": "address"
        }
      ],
      "payable": false,
      "stateMutability": "view",
      "type": "function"
    },
    {
      "constant": true,
      "inputs": [],
      "name": "totalContribution",
      "outputs": [
        {
          "internalType": "uint256",
          "name": "",
          "type": "uint256"
        }
      ],
      "payable": false,
      "stateMutability": "view",
      "type": "function"
    },
    {
      "constant": true,
      "inputs": [],
      "name": "withdrawalCount",
      "outputs": [
        {
          "internalType": "uint256",
          "name": "",
          "type": "uint256"
        }
      ],
      "payable": false,
      "stateMutability": "view",
      "type": "function"
    },
    {
      "constant": true,
      "inputs": [
        {
          "internalType": "uint256",
          "name": "",
          "type": "uint256"
        }
      ],
      "name": "withdrawals",
      "outputs": [
        {
          "internalType": "address payable",
          "name": "recipient",
          "type": "address"
        },
        {
          "internalType": "uint256",
          "name": "value",
          "type": "uint256"
        },
        {
          "internalType": "string",
          "name": "description",
          "type": "string"
        },
        {
          "internalType": "bool",
          "name": "complete",
          "type": "bool"
        },
        {
          "internalType": "uint256",
          "name": "approvalCount",
          "type": "uint256"
        }
      ],
      "payable": false,
      "stateMutability": "view",
      "type": "function"
    },
    {
      "constant": false,
      "inputs": [],
      "name": "contribute",
      "outputs": [],
      "payable": true,
      "stateMutability": "payable",
      "type": "function"
    },
    {
      "constant": true,
      "inputs": [
        {
          "internalType": "address",
          "name": "contributor",
          "type": "address"
        }
      ],
      "name": "weightage",
      "outputs": [
        {
          "internalType": "uint256",
          "name": "",
          "type": "uint256"
        }
      ],
      "payable": false,
      "stateMutability": "view",
      "type": "function"
    },
    {
      "constant": false,
      "inputs": [
        {
          "internalType": "string",
          "name": "_description",
          "type": "string"
        },
        {
          "internalType": "uint256",
          "name": "_value",
          "type": "uint256"
        },
        {
          "internalType": "address payable",
          "name": "_recipient",
          "type": "address"
        }
      ],
      "name": "createWithdrawal",
      "outputs": [],
      "payable": false,
      "stateMutability": "nonpayable",
      "type": "function"
    },
    {
      "constant": false,
      "inputs": [
        {
          "internalType": "uint256",
          "name": "index",
          "type": "uint256"
        }
      ],
      "name": "approveWithdrawal",
      "outputs": [],
      "payable": false,
      "stateMutability": "nonpayable",
      "type": "function"
    },
    {
      "constant": false,
      "inputs": [
        {
          "internalType": "uint256",
          "name": "index",
          "type": "uint256"
        }
      ],
      "name": "finalizeWithdrawal",
      "outputs": [],
      "payable": false,
      "stateMutability": "nonpayable",
      "type": "function"
    }
  ],
  "bytecode": "0x60806040523480156200001157600080fd5b506040516200152738038062001527833981810160405260808110156200003757600080fd5b8101908080519060200190929190805160405193929190846401000000008211156200006257600080fd5b838201915060208201858111156200007957600080fd5b82518660018202830111640100000000821117156200009757600080fd5b8083526020830192505050908051906020019080838360005b83811015620000cd578082015181840152602081019050620000b0565b50505050905090810190601f168015620000fb5780820380516001836020036101000a031916815260200191505b5060405260200180519060200190929190805160405193929190846401000000008211156200012957600080fd5b838201915060208201858111156200014057600080fd5b82518660018202830111640100000000821117156200015e57600080fd5b8083526020830192505050908051906020019080838360005b838110156200019457808201518184015260208101905062000177565b50505050905090810190601f168015620001c25780820380516001836020036101000a031916815260200191505b50604052505050836007819055508260099080519060200190620001e892919062000255565b5081600260006101000a81548173ffffffffffffffffffffffffffffffffffffffff021916908373ffffffffffffffffffffffffffffffffffffffff16021790555080600a90805190602001906200024292919062000255565b5060006001819055505050505062000304565b828054600181600116156101000203166002900490600052602060002090601f016020900481019282601f106200029857805160ff1916838001178555620002c9565b82800160010185558215620002c9579182015b82811115620002c8578251825591602001919060010190620002ab565b5b509050620002d89190620002dc565b5090565b6200030191905b80821115620002fd576000816000905550600101620002e3565b5090565b90565b61121380620003146000396000f3fe6080604052600436106100f35760003560e01c80637569b3d71161008a578063937e09b111610059578063937e09b1146105d95780639eceddea14610604578063d0db31711461063f578063d7bb99ba14610731576100f3565b80637569b3d7146104775780637fb2ce8f146104a25780638da5cb5b146105075780638dd085571461055e576100f3565b80635cc07076116100c65780635cc07076146102815780635e15c7491461038157806371706cbe146103bc5780637284e416146103e7576100f3565b80630724fda9146100f85780630dcf4b8f146101885780631f6d4942146101b357806342e94c901461021c575b600080fd5b34801561010457600080fd5b5061010d61073b565b6040518080602001828103825283818151815260200191508051906020019080838360005b8381101561014d578082015181840152602081019050610132565b50505050905090810190601f16801561017a5780820380516001836020036101000a031916815260200191505b509250505060405180910390f35b34801561019457600080fd5b5061019d6107d9565b6040518082815260200191505060405180910390f35b3480156101bf57600080fd5b50610202600480360360208110156101d657600080fd5b81019080803573ffffffffffffffffffffffffffffffffffffffff1690602001909291905050506107df565b604051808215151515815260200191505060405180910390f35b34801561022857600080fd5b5061026b6004803603602081101561023f57600080fd5b81019080803573ffffffffffffffffffffffffffffffffffffffff1690602001909291905050506107ff565b6040518082815260200191505060405180910390f35b34801561028d57600080fd5b506102ba600480360360208110156102a457600080fd5b8101908080359060200190929190505050610817565b604051808673ffffffffffffffffffffffffffffffffffffffff1673ffffffffffffffffffffffffffffffffffffffff1681526020018581526020018060200184151515158152602001838152602001828103825285818151815260200191508051906020019080838360005b83811015610342578082015181840152602081019050610327565b50505050905090810190601f16801561036f5780820380516001836020036101000a031916815260200191505b50965050505050505060405180910390f35b34801561038d57600080fd5b506103ba600480360360208110156103a457600080fd5b810190808035906020019092919050505061091f565b005b3480156103c857600080fd5b506103d1610acd565b6040518082815260200191505060405180910390f35b3480156103f357600080fd5b506103fc610ad3565b6040518080602001828103825283818151815260200191508051906020019080838360005b8381101561043c578082015181840152602081019050610421565b50505050905090810190601f1680156104695780820380516001836020036101000a031916815260200191505b509250505060405180910390f35b34801561048357600080fd5b5061048c610b71565b6040518082815260200191505060405180910390f35b3480156104ae57600080fd5b506104f1600480360360208110156104c557600080fd5b81019080803573ffffffffffffffffffffffffffffffffffffffff169060200190929190505050610b77565b6040518082815260200191505060405180910390f35b34801561051357600080fd5b5061051c610bd3565b604051808273ffffffffffffffffffffffffffffffffffffffff1673ffffffffffffffffffffffffffffffffffffffff16815260200191505060405180910390f35b34801561056a57600080fd5b506105976004803603602081101561058157600080fd5b8101908080359060200190929190505050610bf9565b604051808273ffffffffffffffffffffffffffffffffffffffff1673ffffffffffffffffffffffffffffffffffffffff16815260200191505060405180910390f35b3480156105e557600080fd5b506105ee610c35565b6040518082815260200191505060405180910390f35b34801561061057600080fd5b5061063d6004803603602081101561062757600080fd5b8101908080359060200190929190505050610c3b565b005b34801561064b57600080fd5b5061072f6004803603606081101561066257600080fd5b810190808035906020019064010000000081111561067f57600080fd5b82018360208201111561069157600080fd5b803590602001918460018302840111640100000000831117156106b357600080fd5b91908080601f016020809104026020016040519081016040528093929190818152602001838380828437600081840152601f19601f82011690508083019250505050505050919291929080359060200190929190803573ffffffffffffffffffffffffffffffffffffffff169060200190929190505050610d86565b005b610739610f05565b005b60098054600181600116156101000203166002900480601f0160208091040260200160405190810160405280929190818152602001828054600181600116156101000203166002900480156107d15780601f106107a6576101008083540402835291602001916107d1565b820191906000526020600020905b8154815290600101906020018083116107b457829003601f168201915b505050505081565b60085481565b60046020528060005260406000206000915054906101000a900460ff1681565b60056020528060005260406000206000915090505481565b6000818154811061082457fe5b90600052602060002090600602016000915090508060000160009054906101000a900473ffffffffffffffffffffffffffffffffffffffff1690806001015490806002018054600181600116156101000203166002900480601f0160208091040260200160405190810160405280929190818152602001828054600181600116156101000203166002900480156108fc5780601f106108d1576101008083540402835291602001916108fc565b820191906000526020600020905b8154815290600101906020018083116108df57829003601f168201915b5050505050908060030160009054906101000a900460ff16908060040154905085565b600260009054906101000a900473ffffffffffffffffffffffffffffffffffffffff1673ffffffffffffffffffffffffffffffffffffffff163373ffffffffffffffffffffffffffffffffffffffff161461097957600080fd5b600080828154811061098757fe5b90600052602060002090600602019050603281600401541015610a12576040517f08c379a000000000000000000000000000000000000000000000000000000000815260040180806020018281038252601b8152602001807f506c6561736520636865636b20617070726f76616c20636f756e74000000000081525060200191505060405180910390fd5b8060030160009054906101000a900460ff1615610a2e57600080fd5b8060000160009054906101000a900473ffffffffffffffffffffffffffffffffffffffff1673ffffffffffffffffffffffffffffffffffffffff166108fc82600101549081150290604051600060405180830381858888f19350505050158015610a9c573d6000803e3d6000fd5b5080600101546008540360088190555060018160030160006101000a81548160ff0219169083151502179055505050565b60015481565b600a8054600181600116156101000203166002900480601f016020809104026020016040519081016040528092919081815260200182805460018160011615610100020316600290048015610b695780601f10610b3e57610100808354040283529160200191610b69565b820191906000526020600020905b815481529060010190602001808311610b4c57829003601f168201915b505050505081565b60065481565b6000806008546064600560008673ffffffffffffffffffffffffffffffffffffffff1673ffffffffffffffffffffffffffffffffffffffff168152602001908152602001600020540281610bc757fe5b04905080915050919050565b600260009054906101000a900473ffffffffffffffffffffffffffffffffffffffff1681565b60038181548110610c0657fe5b906000526020600020016000915054906101000a900473ffffffffffffffffffffffffffffffffffffffff1681565b60075481565b600460003373ffffffffffffffffffffffffffffffffffffffff1673ffffffffffffffffffffffffffffffffffffffff16815260200190815260200160002060009054906101000a900460ff16610c9157600080fd5b6000808281548110610c9f57fe5b906000526020600020906006020190506000610cba33610b77565b90508160050160003373ffffffffffffffffffffffffffffffffffffffff1673ffffffffffffffffffffffffffffffffffffffff16815260200190815260200160002060009054906101000a900460ff1615610d1557600080fd5b60018260050160003373ffffffffffffffffffffffffffffffffffffffff1673ffffffffffffffffffffffffffffffffffffffff16815260200190815260200160002060006101000a81548160ff021916908315150217905550808260040160008282540192505081905550505050565b600260009054906101000a900473ffffffffffffffffffffffffffffffffffffffff1673ffffffffffffffffffffffffffffffffffffffff163373ffffffffffffffffffffffffffffffffffffffff1614610de057600080fd5b610de86110cd565b6040518060a001604052808373ffffffffffffffffffffffffffffffffffffffff168152602001848152602001858152602001600015158152602001600081525090506000819080600181540180825580915050906001820390600052602060002090600602016000909192909190915060008201518160000160006101000a81548173ffffffffffffffffffffffffffffffffffffffff021916908373ffffffffffffffffffffffffffffffffffffffff160217905550602082015181600101556040820151816002019080519060200190610ec6929190611114565b5060608201518160030160006101000a81548160ff02191690831515021790555060808201518160040155505050600180540160018190555050505050565b600754341015610f60576040517f08c379a00000000000000000000000000000000000000000000000000000000081526004018080602001828103825260258152602001806111ba6025913960400191505060405180910390fd5b6000349050346008600082825401925050819055506006600081548092919060010191905055506001600460003373ffffffffffffffffffffffffffffffffffffffff1673ffffffffffffffffffffffffffffffffffffffff16815260200190815260200160002060006101000a81548160ff02191690831515021790555060033390806001815401808255809150509060018203906000526020600020016000909192909190916101000a81548173ffffffffffffffffffffffffffffffffffffffff021916908373ffffffffffffffffffffffffffffffffffffffff1602179055505080600560003373ffffffffffffffffffffffffffffffffffffffff1673ffffffffffffffffffffffffffffffffffffffff1681526020019081526020016000205401600560003373ffffffffffffffffffffffffffffffffffffffff1673ffffffffffffffffffffffffffffffffffffffff1681526020019081526020016000208190555050565b6040518060a00160405280600073ffffffffffffffffffffffffffffffffffffffff1681526020016000815260200160608152602001600015158152602001600081525090565b828054600181600116156101000203166002900490600052602060002090601f016020900481019282601f1061115557805160ff1916838001178555611183565b82800160010185558215611183579182015b82811115611182578251825591602001919060010190611167565b5b5090506111909190611194565b5090565b6111b691905b808211156111b257600081600090555060010161119a565b5090565b9056fe506c6561736520636865636b20746865206d696e696d756d20636f6e747269627574696f6ea265627a7a72315820748c8e446b5afbfde006432221a6dca55874aca95c5f18c3e08952bbaa8b9cb864736f6c63430005100032",
  "source": "pragma solidity >=0.4.21 <0.6.0;\r\n// SPDX-License-Identifier: MIT\r\ncontract CampaignFactory{\r\n    Crowdfunding[] public deployedCampaigns;\r\n\r\n    function createCampaign(uint minimumContribution,string memory campaignName,string memory description) public {\r\n        Crowdfunding newCampaign = new Crowdfunding(minimumContribution,campaignName,msg.sender,description);\r\n        deployedCampaigns.push(newCampaign);\r\n    }\r\n\r\n    function getDeployedCampaigns() public view returns(Crowdfunding[] memory) {\r\n        return deployedCampaigns;\r\n    }\r\n\r\n    function campaignCount() public view returns(uint){\r\n        return deployedCampaigns.length;\r\n    }\r\n}\r\n\r\ncontract Crowdfunding{\r\n    \r\n    struct Withdrawal{\r\n        address payable recipient;\r\n        uint value;\r\n        string description;\r\n        bool complete;\r\n        uint approvalCount;\r\n        mapping (address=>bool) approvals;\r\n    }\r\n    \r\n    Withdrawal[] public withdrawals;\r\n    uint public withdrawalCount;\r\n    address public owner;\r\n    address[] public contributorAddresses;\r\n    mapping (address=>bool) public contributors;\r\n    mapping (address=>uint) public contributions;\r\n    uint public contributorsCount;\r\n    uint public minimumContribution;\r\n    uint public totalContribution;\r\n    string public campaignName;\r\n    string public description;\r\n    \r\n    constructor(uint minimum, string memory name,address _owner,string memory _description) public {\r\n        minimumContribution = minimum;\r\n        campaignName = name;\r\n        owner = _owner;\r\n        description = _description;\r\n        withdrawalCount = 0;\r\n    }\r\n    \r\n    function contribute() public payable {\r\n        require(msg.value>=minimumContribution,\"Please check the minimum contribution\");\r\n        uint contribution = msg.value;\r\n        totalContribution += msg.value;\r\n        contributorsCount++;\r\n        contributors[msg.sender] = true;\r\n        contributorAddresses.push(msg.sender);\r\n        contributions[msg.sender] = contributions[msg.sender] + contribution;\r\n    }\r\n    \r\n    function weightage(address contributor)view public returns (uint){\r\n        uint256 _weightage = (contributions[contributor] * 100 ) / totalContribution;\r\n        return _weightage;\r\n    }\r\n    \r\n    modifier onlyOwner(){\r\n        require(msg.sender == owner);\r\n        _;\r\n    }\r\n    \r\n    modifier onlyContributor(){\r\n        require(contributors[msg.sender]);\r\n        _;\r\n    }\r\n    \r\n    function createWithdrawal(\r\n        string memory _description,\r\n        uint _value,\r\n        address payable _recipient\r\n\r\n    ) public onlyOwner {\r\n\r\n            Withdrawal memory newWihtdrawal = Withdrawal({\r\n                recipient: _recipient,\r\n                value: _value,\r\n                description: _description,\r\n                complete: false,\r\n                approvalCount: 0\r\n            });\r\n        \r\n            withdrawals.push(newWihtdrawal);\r\n            withdrawalCount = withdrawalCount + 1;\r\n    }\r\n    \r\n    function approveWithdrawal(uint index) public onlyContributor {\r\n\r\n        Withdrawal storage withdrawal = withdrawals[index];\r\n        \r\n        uint w = weightage(msg.sender);\r\n        \r\n        require(!withdrawal.approvals[msg.sender]);\r\n        \r\n        withdrawal.approvals[msg.sender] = true;\r\n        withdrawal.approvalCount+=w;\r\n        \r\n    }\r\n    \r\n    function finalizeWithdrawal(uint index) public onlyOwner {\r\n        \r\n        Withdrawal storage withdrawal = withdrawals[index];\r\n        \r\n        require(withdrawal.approvalCount >= (50),\"Please check approval count\");\r\n        require(!withdrawal.complete);\r\n        \r\n        withdrawal.recipient.transfer(withdrawal.value);\r\n        \r\n        totalContribution = totalContribution - withdrawal.value; \r\n        withdrawal.complete = true;\r\n    }\r\n}",
  "sourcePath": "C:\\Users\\adusu\\Desktop\\dev\\BEproject\\contracts\\Crowdfunding.sol",
  "compiler": {
    "name": "solc",
    "version": "0.5.16+commit.9c3226ce.Emscripten.clang"
  },
  "schemaVersion": "3.4.3",
  "updatedAt": "2022-03-15T19:16:39.887Z",
  "devdoc": {
    "methods": {}
  },
  "userdoc": {
    "methods": {}
  }
}